{
  "_format": "hh3-artifact-1",
  "contractName": "Escrow",
  "sourceName": "contracts/Escrow.sol",
  "abi": [
    {
      "inputs": [
        {
          "internalType": "address",
          "name": "_beneficiary",
          "type": "address"
        },
        {
          "internalType": "address",
          "name": "_arbiter",
          "type": "address"
        }
      ],
      "stateMutability": "payable",
      "type": "constructor"
    },
    {
      "anonymous": false,
      "inputs": [
        {
          "indexed": false,
          "internalType": "uint256",
          "name": "amount",
          "type": "uint256"
        }
      ],
      "name": "Approved",
      "type": "event"
    },
    {
      "anonymous": false,
      "inputs": [
        {
          "indexed": false,
          "internalType": "uint256",
          "name": "amount",
          "type": "uint256"
        }
      ],
      "name": "Refunded",
      "type": "event"
    },
    {
      "inputs": [],
      "name": "approve",
      "outputs": [],
      "stateMutability": "nonpayable",
      "type": "function"
    },
    {
      "inputs": [],
      "name": "arbiter",
      "outputs": [
        {
          "internalType": "address",
          "name": "",
          "type": "address"
        }
      ],
      "stateMutability": "view",
      "type": "function"
    },
    {
      "inputs": [],
      "name": "beneficiary",
      "outputs": [
        {
          "internalType": "address",
          "name": "",
          "type": "address"
        }
      ],
      "stateMutability": "view",
      "type": "function"
    },
    {
      "inputs": [],
      "name": "depositor",
      "outputs": [
        {
          "internalType": "address",
          "name": "",
          "type": "address"
        }
      ],
      "stateMutability": "view",
      "type": "function"
    },
    {
      "inputs": [],
      "name": "getBalance",
      "outputs": [
        {
          "internalType": "uint256",
          "name": "",
          "type": "uint256"
        }
      ],
      "stateMutability": "view",
      "type": "function"
    },
    {
      "inputs": [],
      "name": "isApproved",
      "outputs": [
        {
          "internalType": "bool",
          "name": "",
          "type": "bool"
        }
      ],
      "stateMutability": "view",
      "type": "function"
    },
    {
      "inputs": [],
      "name": "refund",
      "outputs": [],
      "stateMutability": "nonpayable",
      "type": "function"
    }
  ],
  "bytecode": "0x60e060405260405161077c38038061077c83398101604081905261002291610163565b6001600160a01b0382166100885760405162461bcd60e51b815260206004820152602260248201527f42656e65666963696172792063616e6e6f74206265207a65726f206164647265604482015261737360f01b60648201526084015b60405180910390fd5b6001600160a01b0381166100de5760405162461bcd60e51b815260206004820152601e60248201527f417262697465722063616e6e6f74206265207a65726f20616464726573730000604482015260640161007f565b5f341161012d5760405162461bcd60e51b815260206004820152601760248201527f4d757374206465706f73697420736f6d65204574686572000000000000000000604482015260640161007f565b336080526001600160a01b0391821660a0521660c052610194565b80516001600160a01b038116811461015e575f5ffd5b919050565b5f5f60408385031215610174575f5ffd5b61017d83610148565b915061018b60208401610148565b90509250929050565b60805160a05160c0516105a36101d95f395f818161012a01528181610157015261034d01525f818160bc015261024201525f8181610103015261042e01526105a35ff3fe608060405234801561000f575f5ffd5b506004361061007a575f3560e01c806338af3eed1161005857806338af3eed146100b7578063590e1ae3146100f6578063c7c4ff46146100fe578063fe25e00a14610125575f5ffd5b806312065fe01461007e57806312424e3f1461009157806328f371aa1461009b575b5f5ffd5b6040514781526020015b60405180910390f35b61009961014c565b005b5f546100a79060ff1681565b6040519015158152602001610088565b6100de7f000000000000000000000000000000000000000000000000000000000000000081565b6040516001600160a01b039091168152602001610088565b610099610342565b6100de7f000000000000000000000000000000000000000000000000000000000000000081565b6100de7f000000000000000000000000000000000000000000000000000000000000000081565b336001600160a01b037f0000000000000000000000000000000000000000000000000000000000000000161461019d5760405162461bcd60e51b815260040161019490610526565b60405180910390fd5b5f5460ff16156101ef5760405162461bcd60e51b815260206004820181905260248201527f457363726f772068617320616c7265616479206265656e207265736f6c7665646044820152606401610194565b5f805460ff19166001179055478061023f5760405162461bcd60e51b81526020600482015260136024820152724e6f2066756e647320746f2072656c6561736560681b6044820152606401610194565b5f7f00000000000000000000000000000000000000000000000000000000000000006001600160a01b0316826040515f6040518083038185875af1925050503d805f81146102a8576040519150601f19603f3d011682016040523d82523d5f602084013e6102ad565b606091505b505090508061030a5760405162461bcd60e51b815260206004820152602360248201527f4661696c656420746f2073656e6420457468657220746f2062656e656669636960448201526261727960e81b6064820152608401610194565b6040518281527f3ad93af63cb7967b23e4fb500b7d7d28b07516325dcf341f88bebf959d82c1cb906020015b60405180910390a15050565b336001600160a01b037f0000000000000000000000000000000000000000000000000000000000000000161461038a5760405162461bcd60e51b815260040161019490610526565b5f5460ff16156103dc5760405162461bcd60e51b815260206004820181905260248201527f457363726f772068617320616c7265616479206265656e207265736f6c7665646044820152606401610194565b5f805460ff19166001179055478061042b5760405162461bcd60e51b8152602060048201526012602482015271139bc8199d5b991cc81d1bc81c99599d5b9960721b6044820152606401610194565b5f7f00000000000000000000000000000000000000000000000000000000000000006001600160a01b0316826040515f6040518083038185875af1925050503d805f8114610494576040519150601f19603f3d011682016040523d82523d5f602084013e610499565b606091505b50509050806104f65760405162461bcd60e51b815260206004820152602360248201527f4661696c656420746f20726566756e6420457468657220746f206465706f73696044820152623a37b960e91b6064820152608401610194565b6040518281527f3d2a04f53164bedf9a8a46353305d6b2d2261410406df3b41f99ce6489dc003c90602001610336565b60208082526027908201527f4f6e6c792074686520617262697465722063616e2063616c6c207468697320666040820152663ab731ba34b7b760c91b60608201526080019056fea2646970667358221220ee43786f4673b6b2373b7835d0411f164f704c91f816c25fcb87c3583c4d35d464736f6c634300081c0033",
  "linkReferences": {},
  "deployedLinkReferences": {},
  "immutableReferences": {
    "4": [
      {
        "length": 32,
        "start": 259
      },
      {
        "length": 32,
        "start": 1070
      }
    ],
    "6": [
      {
        "length": 32,
        "start": 188
      },
      {
        "length": 32,
        "start": 578
      }
    ],
    "8": [
      {
        "length": 32,
        "start": 298
      },
      {
        "length": 32,
        "start": 343
      },
      {
        "length": 32,
        "start": 845
      }
    ]
  },
  "inputSourceName": "project/contracts/Escrow.sol",
  "buildInfoId": "solc-0_8_28-36725ef3f57b3475edc25219fb2c3a7ee4f2051f"
}